:020000040800F2
:10000000B00700209D010008BF1B0008071A000868
:10001000BD1B000813030008DD27000800000000D6
:10002000000000000000000000000000951E000815
:100030001503000800000000E11B0008971E0008DF
:10004000B7010008B7010008B7010008B7010008B0
:10005000B7010008B7010008B7010008B7010008A0
:10006000B7010008B7010008B7010008B701000890
:10007000B7010008B7010008B7010008B701000880
:10008000B7010008B7010008B7010008B701000870
:10009000B7010008B7010008B7010008B701000860
:1000A000B7010008B7010008B7010008B701000850
:1000B000B7010008B7010008B7010008B701000840
:1000C000B7010008B7010008B7010008B701000830
:1000D000B7010008B7010008B7010008B701000820
:1000E000B7010008B7010008B7010008B701000810
:1000F000B7010008B7010008B7010008B701000800
:10010000B7010008B7010008B7010008B7010008EF
:10011000B7010008B7010008B7010008B7010008DF
:10012000B7010008B7010008B7010008B7010008CF
:10013000B7010008B7010008B7010008B7010008BF
:10014000B7010008B7010008B7010008B7010008AF
:10015000B7010008B7010008B7010008B70100089F
:10016000B7010008B7010008B7010008B70100088F
:10017000B7010008B7010008B7010008000000003F
:10018000B7010008B7010008DFF80CD000F084F8D0
:100190000048004709290008B007002006488047AA
:1001A00006480047FEE7FEE7FEE7FEE7FEE7FEE75C
:1001B000FEE7FEE7FEE7FEE71D1F000889010008D5
:1001C0002DE9F05F0546002092469B46884606468C
:1001D000814640241BE0284641464746224600F01F
:1001E0004BF853465A46C01A914110D3114618464F
:1001F000224600F032F82D1A67EB01084F462246DE
:100200000120002100F029F817EB00094E41201EC3
:10021000A4F10104DFDC484631462A46434600F09B
:1002200000B830BCBDE8C09FD2B201E000F8012B9D
:10023000491EFBD270470022F6E710B513460A4666
:1002400004461946FFF7F0FF204610BD421C10F887
:10025000011B0029FBD1801A7047202A04DB203AB9
:1002600000FA02F1002070479140C2F1200320FA09
:1002700003F3194390407047202A04DB203A21FA07
:1002800002F00021704721FA02F3D040C2F12002AF
:100290009140084319467047064C074D06E0E06858
:1002A00040F0010394E8070098471034AC42F6D3BD
:1002B000FFF76EFF502F0008702F000870B58C18E4
:1002C00010F8015B15F0070301D110F8013B2A116A
:1002D00006D110F8012B03E010F8016B01F8016B57
:1002E0005B1EF9D12B0705D40023521E0DD401F853
:1002F000013BFAE710F8013BCB1A921C03E013F81C
:10030000015B01F8015B521EF9D5A142D8D3002050
:1003100070BDFEE77047000070B5124C1248216AAC
:10032000FFF789FF0020206564230B2204F171018F
:100330000E4801F010FB642000F0D8F80A4D206D43
:1003400005232918401C20650122084801F08EFA77
:10035000216A206D8842F2DBBDE87040642000F025
:10036000C5B8000008000020CC01002038030020A0
:1003700070B5124C1248216AFFF75DFF002020651E
:100380006423132204F1A2010E4801F0E4FA642070
:1003900000F0ACF80A4D206D05232918401C20659B
:1003A0000122084801F062FA216A206D8842F2DBDE
:1003B000BDE87040642000F099B8000008000020FB
:1003C000CC0100203803002070B513493030A1F172
:1003D000870488721148216AFFF72DFF00202065ED
:1003E00064230D220C490E4801F0B5FA642000F098
:1003F0007DF80A4D206D05232918401C2065012237
:10040000074801F033FA216A206D8842F2DBBDE82B
:100410007040642000F06AB88F000020CC010020FA
:100420003803002070B5114C1148216AFFF703FF13
:100430000020206564230322A11D0E4801F08BFAE1
:10044000642000F053F80A4D206D05232918401C44
:1004500020650122074801F009FA216A206D8842CF
:10046000F2DBBDE87040642000F040B808000020D6
:10047000CC010020380300202DE9F041184C194828
:10048000216AFFF7D8FE0026164D01274FF4967813
:100490002665134905230122C91C134801F0E6F91A
:1004A000E0780D28F5D1E762206D05232918401C5E
:1004B000206501220C4801F0D9F9216A206D88429B
:1004C000F2DB642000F012F8206D4045E0D10125F8
:1004D000642000F00BF8E6702846BDE8F0810000CB
:1004E00008000020CC0100203803002070B504462D
:1004F00000F0FAF80546601C00D0641C00F0F4F827
:10050000401BA042FAD370BD2DE9F84FDFF898B137
:1005100000234FF0010C4FF0030A4FF00F090BF1CD
:10052000040EB9E00CFA03F4224070D04D68022D9D
:1005300001D0122D0ED1DD0800EB8508D8F820502F
:100540005E07F70E09FA07F6B5430E69BE402E4363
:10055000C8F8206007685E0091F804800AFA06F582
:1005600008F00308AF4308FA06F848EA0708C0F89D
:1005700000804F68012F05D0022F03D0112F01D02A
:10058000122F13D1D0F80880CF6828EA0508B740A9
:1005900047EA08078760D0F804800F7928EA040842
:1005A000C7F300179F4047EA08074760D1F8048067
:1005B0006FEA0807BF0706D1C76AA743C8F3C0049C
:1005C0009C403C43C462C468AC438D68B54025433D
:1005D000C5604C68E4005ED5344C256E45F00105DD
:1005E0002566246E23F0030504F001040094304CCA
:1005F0002E19B4689D072F0F09FA07F5AC43B0F127
:10060000904F05D02B4DA84204D101251CE042E0BB
:10061000002519E0284DA84201D1022514E0274DFC
:10062000A84201D103250FE0254DA84201D10425A0
:100630000AE0244DA84201D1052505E0224DA8423B
:1006400001D1062500E00725BD402543B560DBF854
:1006500000405D464E689443F60300D514432C6079
:10066000DEF8004075464E689443B60300D5144347
:100670002C600D4D08352C684E689443F60200D569
:1006800014432C60084D0C352C684E689443B60218
:1006900000D514432C605B1C0A6832FA03F57FF422
:1006A00041AF00F013B80000000401400010024008
:1006B000000001400004004800080048000C004809
:1006C00000100048001400480018004818BCBDE89D
:1006D000E08F0069084000D0012070470AB18161B5
:1006E0007047816270470000014800687047000051
:1006F0000000002002480168491C016070470000AA
:100700000000002010B5032000F07CF8002000F06D
:1007100005F800F017F8002010BD000010B50446E1
:1007200007484FF47A710068B0FBF1F000F013FE57
:1007300000222146501E00F045F8002010BD0000A8
:10074000040000201E4808B5016E41F00101016659
:10075000016E01F001010091816D41F080518165D0
:10076000806D00F080500090032000F04BF80022D4
:1007700011466FF00B0000F025F8002211466FF0D3
:100780000A0000F01FF8002211466FF0090000F087
:1007900019F800221146501F00F014F800221146EB
:1007A000101F00F00FF800221146901E00F00AF80A
:1007B0000022BDE808401146501E00F003B80000BA
:1007C00000100240F0B40E4B1B680C46C3F302232A
:1007D000C3F10705042D00D90425191D072901D2ED
:1007E000002300E0DB1E012606FA05F1491E214028
:1007F00099409E40761E16403143F0BC01F0E0B9AE
:100800000CED00E0064900F0070208684FF6FF0310
:10081000184040EA0220034A104308607047000075
:100820000CED00E00000FA051549B0F5007F0868FE
:10083000C0F3412009D0022805D0086820F4C06028
:1008400040F480600860002070470128FBD00868F1
:1008500020F4C06040F4007008600A480A4A00684A
:10086000B0FBF2F03222504300E0401E10B14A6962
:100870005205FAD448694005E5D5032070470000C9
:10088000007000400400002040420F000248006851
:1008900000F4C06070470000007000402DE9F84F80
:1008A000044600270088E54D3E46010504F1200B73
:1008B0001DD5606E78B1B0F5800F11D0B0F5000F86
:1008C00004D0B0F5400F22D001270FE0E86840F4D3
:1008D0008030E8601BE00021201D01F083F903E077
:1008E0000021584601F014FA070010D03E46208837
:1008F000C00426D5A06EC0B1B0F1807F1AD0B0F18F
:10090000007F0DD0B0F1407F19D0012718E0D5F855
:100910008800616E20F440000843C5F88800E6E7CF
:10092000E86840F48030E86009E00021201D01F013
:1009300059F903E00021584601F0EAF90746F7B1FA
:100940003E46206880033AD5A86D4FF00008C000ED
:1009500009D4A86D40F08050A865A86D4FF001083B
:1009600000F080500090DFF8D8A2DAF8001041F4CF
:100970008071CAF80010FFF7B7FE814610E0D5F885
:100980008800A16E20F040700843C5F88800D8E7C1
:10099000FFF7AAFEA0EB0900022801D9032705E012
:1009A000DAF80000C005F3D5002F7CD04FEA070627
:1009B000B8F1000F03D0A86D20F08050A865207812
:1009C000C00707D0D5F88800A16B20F003000843CA
:1009D000C5F888002078800707D5D5F88800E16B36
:1009E00020F00C000843C5F888002078400707D5A0
:1009F000D5F88800216C20F030000843C5F8880045
:100A00002078000707D5D5F88800616C20F0C00079
:100A10000843C5F888002078C00607D5D5F88800B7
:100A2000A16C20F440700843C5F888002078800647
:100A300007D5D5F88800E16C20F440600843C5F87C
:100A400088002088800507D5D5F88800E16D20F45E
:100A500040200843C5F888002088400507D5D5F810
:100A60008800216E20F440100843C5F888002078E3
:100A7000400607D5D5F88800216D20F44050084382
:100A8000C5F888002078000607D5D5F88800616D84
:100A900020F440400843C5F888002088C00509D5E7
:100AA000D5F8880000E01CE0A16D20F44030084338
:100AB000C5F8880020884FF0006780044FF08068F8
:100AC0004FD5D5F88800E16E20F040600843C5F8A6
:100AD0008800E06EB8423CD1E86840F48010E860DD
:100AE0003FE0D5F8900010F4407015D0D4F8841091
:100AF000814211D0D5F89000D5F8901020F44070C4
:100B000041F48031C5F89010D5F8901021F480316F
:100B1000C5F89010C5F89000C00710D0FFF7E4FDAD
:100B2000074641F2883906E0FFF7DEFDC11B494563
:100B300001D903263CE7D5F890008007F4D5D5F815
:100B40009000D4F8841020F440700843C5F8900059
:100B50002EE7404505D10121201D01F043F800B1E9
:100B600006462068000317D5D5F88800216F20F0CD
:100B700040600843C5F88800206FB84204D1E86897
:100B800040F48010E86007E0404505D10121201DB8
:100B900001F028F800B106462068400317D5D5F8C3
:100BA0008800616F20F040600843C5F88800606FDE
:100BB000B84204D1E86840F48010E86007E040459E
:100BC00005D10121201D01F00DF800B10646208855
:100BD00040041AD5D5F88800A16F20F04050084392
:100BE000C5F88800A06FB0F1805F03D0B0F1005F5E
:100BF00005D00AE00221201D00F0F4FF03E00221ED
:100C0000584601F085F800B106462088000407D553
:100C1000D5F88800E16F20F080400843C5F88800CF
:100C20002068C00307D555F8880FD4F8801020F04D
:100C3000004008432860304600F004B8001002402D
:100C40000070004018BCBDE8E08F00002DE9F047BF
:100C5000DFF8608105460E46D8F8000000F0070076
:100C6000B0420CD2D8F8001021F007013143C8F887
:100C70000010D8F8000000F00700B04275D12878C5
:100C80004D4CC00757D06868032818D0022819D0E7
:100C90002168D0B14905002967DAA16821F0030174
:100CA0000143A160FFF720FD6968074641F28830E3
:100CB000032913D002291FD0814651B336E02168A1
:100CC0008901E8E721688903E5E78907E3E700BFD1
:100CD000FFF70AFDC11B494501D924E08146A06800
:100CE000C0F381000328F3D125E000BFFFF7FCFC2F
:100CF000C11B494501D916E08146A068C0F38100B7
:100D00000228F3D117E000BFFFF7EEFCC11B4945F5
:100D100009D8A06810F00C0FF6D10CE0FFF7E4FC46
:100D2000C11B494502D90320BDE8F087A068C0F384
:100D300081000128F2D12878800705D5A068A9682C
:100D400020F0F0000843A060D8F80010404601F001
:100D50000701B1420BD9016821F00701314301605D
:100D6000006800F00700B04201D00120DCE72878DD
:100D7000400705D5A068E96820F4E0600843A0605A
:100D80002878000706D5A068296920F4605040EA59
:100D9000C100A06000F03CF8A168084AC1F303114B
:100DA000515CC840064908600020FFF7B7FC0020EE
:100DB000BAE700000020024000100240082F00089F
:100DC0000400002001480068704700000400002073
:100DD0000448054900688968044AC1F30221515C4E
:100DE000C84070470400002000100240482F00084F
:100DF0000448054900688968044AC1F3C221515C6E
:100E0000C84070470400002000100240482F00082E
:100E100030B52D49002318468A682C4C12F00C0F6F
:100E20004FEA640514D08A68C2F38102032A04D110
:100E3000CA6802F00302012A0AD08A68C2F381025A
:100E4000012A19D08A68C2F38102022A16D016E05C
:100E50000A68120704D4D1F89420C2F3032202E0F6
:100E60000A68C2F303121A4B53F822308A6812F050
:100E70000C0F04D1184602E0204600E028468A689C
:100E8000C2F38102032A1DD1C868CA6800F00300BA
:100E9000C2F30212521C022804D0032805D0B3FB6F
:100EA000F2F004E0B4FBF2F001E0B5FBF2F0CA6846
:100EB000C968C2F306225043C1F34161491C49008D
:100EC000B0FBF1F030BD0000001002400024F4003F
:100ED000182F00082DE9F84304460078FE4DC0069F
:100EE0005DD5A86810F00C0F0AD0A069002828680A
:100EF00071D040F001002860FFF7F6FB064654E091
:100F00002868800702D5A06900287DD0216A28685A
:100F1000000703D5286800F0F00004E0D5F894003D
:100F2000F02202EA1010814216D9084600F074FF40
:100F3000002869D1286840F0080028602868216AE4
:100F400020F0F000084328606868E16920F47F40E1
:100F500040EA0120686015E0286840F00800286039
:100F60002868216A20F0F000084328606868E16979
:100F700020F47F4040EA01206860206A00F04CFFC6
:100F80000028D6D1FFF744FFA968D44AC1F3031162
:100F9000515CC840D24908600020FFF7BFFB29E040
:100FA000FFF7A2FB801B02287ED828688007F7D5B0
:100FB000286840F0080028602868216A20F0F000C6
:100FC000084328606868E16920F47F4040EA012016
:100FD00068600FE0FFE720F001002860FFF784FB66
:100FE000064604E0FFF780FB801B0228DCD8286857
:100FF0008007F7D42078C0074AD0A868C0F38100E2
:1010000002281FD0A86800E098E0C0F38100032800
:1010100003D1E868C043800714D06068B0F5803F12
:1010200017D0B0F5A02F286817D020F480302860A2
:10103000286820F4802028606068E0B1FFF754FB46
:10104000064614E02868800322D56068002875D021
:101050001EE0286840F48030EDE740F480202860EE
:10106000F7E700BFFFF740FB801B64289CD8286887
:101070008003F7D50CE0FFF737FB064605E000BF1D
:10108000FFF732FB801B64288ED828688003F7D4D2
:101090002078800742D5A868C0F38100012816D0C7
:1010A000A868C0F3810000E0A9E0032804D1E86843
:1010B00000F0030002280AD0E068002828681DD04C
:1010C00040F480702860FFF70FFB06460BE02868AD
:1010D00040050BD5E0680028B9D007E0FFF704FB16
:1010E000801B0228C2D828684005F7D56868217C93
:1010F00020F0F85040EA016068600FE020F4807052
:101100002860FFF7F1FA064605E000BFFFF7ECFAAA
:10111000801B022873D828684005F7D42078000780
:1011200029D560690028D5F8940013D040F001005B
:10113000C5F89400FFF7D8FA064606E0FBE000BFCA
:10114000FFF7D2FA801B022859D8D5F894008007FF
:10115000F6D510E020F00100C5F89400FFF7C4FABE
:10116000064604E0FFF7C0FA801B022847D8D5F8EE
:1011700094008007F6D42078400763D5A86D002638
:10118000C00008D4A86D40F08050A865A86D012665
:1011900000F08050009053480168C90511D40168DF
:1011A000804641F480710160FFF79EFA074604E033
:1011B000FFF79AFAC01B022821D8D8F80000C00512
:1011C000F6D5A068012815D00528D5F8900017D0CD
:1011D00020F00100C5F89000D5F8900020F0040040
:1011E000C5F89000A06841F28838C8B1FFF77CFAD2
:1011F000074610E0D5F8900040F00100F0E777E0F6
:1012000040F00400C5F89000F4E700BFFFF76CFA67
:10121000C11B41456CD8D5F890008007F6D50CE08D
:10122000FFF762FA074604E0FFF75EFAC11B41458B
:1012300079D8D5F890008007F6D41EB1A86D20F0BB
:101240008050A865A06AE0B3A968C1F381010329B1
:1012500072D00228286820F08070286011D0286899
:10126000000106D42868800003D4E86820F0030059
:10127000E860E8681C490840E860FFF735FA044672
:1012800054E0FFF731FA064605E000BFFFF72CFAFD
:10129000801B022847D828688001F7D4206BE16AB8
:1012A000000110380843616BA26B0902120941EA80
:1012B00042410843A18F0D4A490802EB41510843BE
:1012C00000E036E094F840104908120102EB416159
:1012D0000843E86028680CE000100240082F00086E
:1012E0000400002000700040FFFFEEFE0000E0FF61
:1012F00019E040F080702860E86840F08070E86095
:10130000FFF7F2F9044604E0FFF7EEF9001B0228AC
:1013100009D828688001F7D50BE000BFFFF7E4F992
:10132000001B022802D90320BDE8F8832868800149
:10133000F4D40020F8E7FFE70120F5E74FF0E021C3
:101340000428086903D020F004000861704740F0C9
:101350000400FAE7704710B5401EB0F1807F01D35A
:10136000012010BD4FF0E02460610F21601700F0F4
:1013700027FC0020A06107202061002010BD10B5CF
:10138000FFF7E8FF10BD000030B590F83C20012ABF
:101390003DD0012280F83C20CA688B6822F440725C
:1013A0001A434B6822F480621A430B6822F40062ED
:1013B0001A430B6922F480521A434B6922F40052FB
:1013C0001A438B6A22F480421A4322F400421A43E1
:1013D0000B8B22F4702242EA03420E4D0368002474
:1013E000AB4202D00C4DAB420CD18D8C22F470027A
:1013F00042EA0552CD6922F080722A43096A22F03E
:1014000000720A435A6480F83C40002030BD02203C
:1014100030BD0000002C01400034014030B590F890
:101420003C20012A1FD0012280F83C20026853682A
:1014300094680E4DAA4202D00D4DAA4203D123F466
:1014400070054B682B4323F070050B6889682B43AC
:1014500024F080042143536002689160002180F8E9
:101460003C10084630BD022030BD0000002C014079
:101470000034014010B5040003D094F83D0010B1D1
:1014800007E0012010BD002084F83C00204600F059
:101490000DF8022084F83D00211D206800F060FD59
:1014A000012084F83D00002010BD000008B5006850
:1014B0000649884208D10648016E41F40061016680
:1014C000006E00F40060009008BD0000002C014098
:1014D0000010024070B5044690F83C00012817D077
:1014E000012584F83C50022084F83D002268906871
:1014F000364E304020F47F4090600868502839D044
:101500000DDC20285BD005DC98B3102843D153E0D4
:10151000022070BD302855D040283CD141E06028E1
:1015200030D070280CD0B0F5805F03D0B0F5005FEC
:1015300031D112E020688168244A7032114016E0EF
:10154000CB68D1E90121206800F075FD2168886829
:10155000304040F0770088601DE0CB68D1E9012180
:10156000206800F068FD2068816841F48041816056
:1015700011E01EE0CA684968206800F0F7FE5021BB
:10158000206806E0CA684968206800F000FF602112
:10159000206800F05AFD84F83D50002084F83C009B
:1015A00070BDCA684968206800F0E0FE40212068EC
:1015B000EFE700212068ECE710212068E9E720210F
:1015C0002068E6E730212068E3E7000088FFFEFF9F
:1015D00000B50068094985B088420DD1801500909A
:1015E000022001900020029003900120049069469F
:1015F0004FF09040FEF788FF05B000BD002C014081
:1016000070B5044690F83C000D4601280ED0012626
:1016100084F83C60022084F83D000C2A45D007DCA9
:101620005AB1042A1BD0082A78D12CE0022070BDC0
:10163000102A4ED0142A71D15DE0206800F00EFD12
:101640002068816941F0080181612068816921F089
:1016500004018161206881692A69114311E02068D1
:1016600000F04AFD2068816941F4006181612068D1
:10167000816921F480618161206881692A6941EA78
:10168000022181614AE0206800F07EFD2068C16986
:1016900041F00801C1612068C16921F00401C16104
:1016A0002068C1692A69114311E0206800F0B4FD87
:1016B0002068C16941F40061C1612068C16921F4F9
:1016C0008061C1612068C1692A6941EA0221C16162
:1016D00024E0206800F0DAFD2068416D41F0080147
:1016E00041652068416D21F0040141652068416D2C
:1016F0002A69114311E0206800F000FE2068416D66
:1017000041F4006141652068416D21F480614165CB
:101710002068416D2A6941EA0221416584F83D60F3
:10172000002084F83C0070BD10B5040003D094F88C
:101730003D0010B107E0012010BD002084F83C00FE
:10174000204600F00CF8022084F83D00211D20689E
:1017500000F006FC012084F83D00002010BD704719
:1017600010B504460068012200F05AFC0D482168BB
:1017700081420BD00C48814208D00C48814205D0F0
:101780000B48814202D00B48814203D1486C40F49F
:10179000004048642068016841F0010101600020B8
:1017A00010BD0000002C0140003401400040014009
:1017B000004401400048014010B5040003D094F8F3
:1017C000710010B107E0012010BD002084F8700006
:1017D000204600F027F8242084F871002068016872
:1017E00021F001010160204600F076FE0128EBD0D7
:1017F000606A10B1204600F0DCFD2068416821F4E9
:10180000904141602068816821F02A018160206850
:10181000016841F0010101602046BDE8104000F080
:101820002CBE000000B500680E4987B0884216D172
:101830000D48816D41F400218165806D022100F425
:10184000002005900320CDE900010021CDE9021020
:101850000820049069464FF09040FEF755FE07B00F
:1018600000BD0000004C0040001002402DE9F84F80
:10187000044690F872009A4616460D46202865D117
:10188000EDB1E6B194F8700001285FD0012084F832
:10189000700000276767222084F872005434FEF736
:1018A00023FFA6808146E68054F84C0C4FF4805804
:1018B000FF21543C404508D1206918B10DE00120BA
:1018C00000F046B840F2FF100DE07F2218B1B0F1F1
:1018D000805F05D009E0206950B9A4F85C1004E0ED
:1018E000206928B13F20A4F85C00B4F85C601CE0DB
:1018F000A4F85C20F9E74B46002220212046CDF8D1
:1019000000A000F039FF08B10320D9E7A0684045E6
:1019100001D12069A0B12068808C304005F8010B0E
:10192000B4F85A00401EA4F85A00B4F85A0000282F
:10193000E1D1202084F8720084F870700020BFE7A5
:101940002068808C304025F8020BE9E70220B7E7D9
:1019500018BCBDE8E08F2DE9F843044690F871000B
:101960001F4616460D4620284BD1C5B1BEB194F88E
:101970007000012845D0012084F870004FF0000865
:10198000C4F87480212084F87100FEF7ADFEA4F83D
:1019900050608146A4F852604FF4805615E0012053
:1019A000BDE8F8838021204600F0E6FED8B9A068A3
:1019B000B04201D12069C0B115F8010B216808853A
:1019C000B4F85200401EA4F85200B4F852004B463E
:1019D0004FF0000200970028E4D14FF0400120466C
:1019E00000F0CAFE30B10320DAE735F8020BC0F38D
:1019F0000800E3E7202084F8710084F8708000205C
:101A0000CEE70220CCE7FEE72DE9F0412F4886B073
:101A1000C16C41F08001C164C16C01F0800105918D
:101A2000C16C41F00401C164C16C01F00401059175
:101A3000C16C41F00101C164C16C01F0010105916B
:101A4000C16C41F00201C164C06CDFF8848000F019
:101A500002000590002203214046FEF73FFE4FF0B2
:101A600090460022F0213046FEF738FE194F002242
:101A7000FF213846FEF732FE0320009001250024A6
:101A8000CDE90154694640460394FEF73DFDF02040
:101A90000090CDE90154694630460394FEF734FDC9
:101AA000FF200090CDE90154694638460394FEF7C3
:101AB0002BFD4FF4E070CDE90004694640460294E6
:101AC000FEF722FD06B0BDE8F081000000100240E4
:101AD000000800480004004810B529489AB027497A
:101AE000016001210024C0E901146421C0E903144C
:101AF00044618461FFF7BEFC00B1FEE74FF4805003
:101B0000159015A91E48FFF7E5FC00B1FEE71C483B
:101B1000FFF70AFE00B1FEE71294139412A91848C9
:101B20001494FFF77BFC00B1FEE76020CDE90B04C5
:101B30000D940E940F94109400220BA91048119448
:101B4000FFF75EFD00B1FEE700944FF40050CDE9D1
:101B5000044001940294039400030694CDE90740E5
:101B60000994694606480A94FFF70EFC00B1FEE7A7
:101B70000348FFF72DFD1AB010BD0000002C0140F6
:101B8000F80200200C4810B50A4901604FF41651C4
:101B90004160002181600C22C160C0E904128161B2
:101BA000C16101624162FFF707FE002800D0FEE735
:101BB00010BD0000004C004038030020FEE77047D5
:101BC0000907090E002806DA00F00F0000F1E020F6
:101BD00080F8141D704700F1E02080F80014704771
:101BE000704700002DE9F041444C05468846E06806
:101BF0000026810728680DD0E16801F003018142C9
:101C000016D1A8B1E0686968C0F30210401C884290
:101C10000ED120E0012804D0022805D0032807D1E6
:101C200008E02168890701E021684905002907DBF0
:101C300001265FE02168890302D421684903F5E7A2
:101C4000E1686A686FF00F0321F0730103EB021281
:101C500011430143E160206820F080602060FEF7BE
:101C600043FD074605E000BFFEF73EFDC01B02280E
:101C700037D820680001F7D4B8F1000F18D0B8F1B8
:101C8000010F1ED0287D4FF07E41400801EB4060DF
:101C9000A96840EA01202169194A114008432061DE
:101CA000206840F080602060FEF71EFD07461AE0C5
:101CB000A868E9680002090940EA41402169114A1F
:101CC000EBE7288A1049400801EB4050A96840EA38
:101CD000012021690D4AE0E7FEF706FDC01B02283E
:101CE00001D9032606E020680001F5D52069A9691D
:101CF000084320613046BDE8F0810000001002403A
:101D0000FF80FFF9FF80FDFF0000E0FFFF809FFFE5
:101D10002DE9F0413D4C06468846E06800258107E4
:101D200030680DD0E16801F00301814216D1A8B1FD
:101D3000E0687168C0F30210401C88420ED120E0B8
:101D4000012804D0022805D0032807D108E0216823
:101D5000890701E021684905002907DB012551E0D9
:101D60002168890302D421684903F5E7E1687268B4
:101D70006FF00F0321F0730103EB021211430143D3
:101D8000E160206820F080502060FEF7ADFC07463F
:101D900005E000BFFEF7A8FCC01B022829D8206878
:101DA0008000F7D4B8F1000F15D0307C4FF07E41A1
:101DB000400801EB4060B16840EA01206169144AC3
:101DC000114008436061206840F080502060FEF7B9
:101DD0008BFC07460FE0B068F1680002090940EA91
:101DE000414061690B4AEBE7FEF77EFCC01B02280D
:101DF00001D9032506E020688000F5D56069716986
:101E0000084360612846BDE8F081000000100240F0
:101E1000FF80FFF9FF80FDFFF8B51C4D064600244A
:101E2000A86DC00002D5FEF731FD0DE0A86D40F0B1
:101E30008050A865A86D00F080500090FEF726FD48
:101E4000A96D21F08051A965B0F5007F04D0802EE6
:101E500007D94FF003040AE0802E08D9A02E01D83C
:101E600004E001D1022402E0702E00D101240848D0
:101E7000016821F0070121430160006800F00700BC
:101E8000A04201D00120F8BD0020F8BD00100240A2
:101E900000200240704710B5FEF72CFCBDE8104052
:101EA000FFF76DBA10B5B8B01020229000240120C1
:101EB000CDE9280470202A902C9422A8FFF70AF874
:101EC00000B1FEE70F20CDE93304359436940021AC
:101ED00033A83794FEF7BAFE00B1FEE70820009061
:101EE00011946846FEF7DAFC00B1FEE74FF400708B
:101EF000FEF79AFC00B1FEE7FEF764FF4FF47A713B
:101F0000B0FBF1F0FFF727FA0420FFF717FA0022E1
:101F10001146501EFEF756FC38B010BD0D48016842
:101F200041F4700101600C48016841F00101016059
:101F3000002181600268094B1A4002608214C2606D
:101F4000026822F48022026081610249C003803964
:101F50000860704788ED00E000100240FFFFF6EADD
:101F60002DE9F0470268264B264D274E274F284C77
:101F70004FF0804A984209D0504507D0A84205D07A
:101F8000B04203D0B84201D0A04204D122F0700C7C
:101F90004A6842EA0C02DFF87CC0DFF87C80DFF898
:101FA0007C9098420FD050450DD0A8420BD0B04243
:101FB00009D0B84207D0A04205D0604503D04045C3
:101FC00001D0484503D122F44075CA682A4322F063
:101FD00080054A692A4302608A68C2620A6882628E
:101FE000984207D0A04205D0604503D0404501D0BB
:101FF000484501D10969016301214161BDE8F087CC
:10200000002C01400004004000080040000C00408B
:1020100000340140004001400044014000480140BC
:1020200010B50123046A8B409C430462036A8A4012
:102030001343036210BD10B5846842EA032224F4FE
:102040007F440A432243826010BD826822F07002FE
:102050000A4342F007018160704700002DE9F04318
:10206000026A22F001020262056A436882691C4C1E
:1020700025F0020522400C6822F0030214438A680E
:10208000194E2A43174D194FDFF864C0DFF86490EA
:10209000A84207D0B04205D0B84203D0604501D075
:1020A000484506D122F00808CA6842EA080222F030
:1020B0000402A84207D0B04205D0B84203D0604520
:1020C00001D0484505D14D6923F440731D438B6908
:1020D0002B4343608461496841630262BDE8F08339
:1020E0008FFFFEFF002C0140003401400040014002
:1020F0000044014000480140F0B5026A22F010029D
:102100000262056A42688369194C1B4E23400C68C1
:1021100023F4407343EA042425F020038D6843EA46
:102120000513144DA84201D0B04206D1CF6823F068
:10213000800343EA071323F04003A8420AD0B042C9
:1021400008D00E4DA84205D00D4DA84202D00D4D2D
:10215000A84207D14D6922F4406242EA85028D69A6
:1021600042EA850242608461496881630362F0BD8E
:10217000FF8FFFFE002C0140003401400040014071
:102180000044014000480140F0B5026A22F4807228
:102190000262056A4368C269194C1B4E22400C68F2
:1021A00022F00302144325F400728D6842EA0522EE
:1021B000144DA84201D0B04206D1CF6822F400628B
:1021C00042EA072222F48062A8420AD0B04208D034
:1021D0000E4DA84205D00E4DA84202D00D4DA8428A
:1021E00007D14D6923F4405343EA05138D6943EA4F
:1021F00005134360C4614968C1630262F0BD000019
:102200008FFFFEFF002C01400034014000400140E0
:10221000004401400048014030B5026A22F4805277
:102220000262046A4268C369124D24F400542B40D0
:102230000D6823F4407343EA05238D6844EA0534AE
:102240000D4DA8420BD00D4DA84208D00C4DA84210
:1022500005D00C4DA84202D00B4DA84204D14D69C7
:1022600022F4804242EA85124260C36149680164F7
:10227000046230BDFF8FFFFE002C0140003401409E
:1022800000400140004401400048014030B5026A6E
:1022900022F480320262046A4268436D114D2B4081
:1022A0000D681D4324F400330C8943EA04430E4CAB
:1022B000A0420BD00D4CA04208D00D4CA04205D03E
:1022C0000C4CA04202D00C4CA04204D14C6922F428
:1022D000803242EA042242604565496881650362B2
:1022E00030BD00008FFFFEFF002C01400034014094
:1022F00000400140004401400048014030B5026AFE
:1023000022F480120262046A4268436D114D24F483
:1023100000142B400D6843EA05230D8944EA055457
:102320000D4DA8420BD00D4DA84208D00C4DA8422F
:1023300005D00C4DA84202D00B4DA84204D14D69E6
:1023400022F4802242EA8522426043654968C165E1
:10235000046230BDFF8FFFFE002C014000340140BD
:1023600000400140004401400048014010B5036AAC
:10237000046A24F001040462846924F0F00444EA4D
:10238000021423F00A020A438461026210BD10B5F0
:10239000036A23F0100303628369046A23F4704321
:1023A00043EA023224F0A00343EA01118261016290
:1023B00010BD90F82410C90706D001684A68836AE6
:1023C00022F400321A434A6090F82410890706D597
:1023D00001684A68C36A22F480321A434A6090F85E
:1023E0002410490706D501684A68036B22F480224D
:1023F0001A434A6090F82410090706D501684A6814
:10240000436B22F400421A434A6090F82410C90634
:1024100006D501688A68836B22F480521A438A6069
:1024200090F82410890606D501688A68C36B22F4E7
:1024300000521A438A6090F82410490611D50168A9
:102440004A68036C22F480121A434A60016CB1F5A9
:10245000801F06D101684A68436C22F4C0021A4307
:102460004A6090F82410090606D501684A68806C15
:1024700022F4002202434A607047F8B50026044661
:102480004667FEF731F90546206800686FF07E4721
:10249000000708D52B4600224FF400112046009774
:1024A00000F06AF960B92068006840070AD52B4639
:1024B00000224FF480012046009700F05DF908B13A
:1024C0000320F8BD202084F8710084F8720084F89D
:1024D00070600020F8BD00002DE9F041044601685D
:1024E00080682369E6691843636910250027334330
:1024F0001843954A0B68954E334003430B602068A0
:102500004168E36821F44051194341602168A069A2
:10251000914201D0236A18438B6823F4306303434C
:102520008B608B4B21688B4899420DD1D0F8880085
:1025300010F0030006D001285AD0022856D00328F4
:1025400059D157E0012556E0834B99420BD1D0F881
:10255000880010F00C0047D0042849D0082845D046
:102560000C2848D146E07D4B99420BD1D0F8880029
:1025700010F0300038D010283AD0202836D030283B
:1025800039D137E0764B99420BD1D0F8880010F062
:10259000C00029D040282BD0802827D0C0282AD19D
:1025A00028E0704B99420ED1D0F8880010F44070AA
:1025B0001AD0B0F5807F1BD0B0F5007F16D0B0F5F3
:1025C000407F18D116E0914215D1D0F8880010F460
:1025D000406009D0B0F5806F0AD0B0F5006F05D02B
:1025E000B0F5406F07D105E0002504E0022502E0C8
:1025F000042500E008255C4B00264FF40040914282
:102600003DD135B1022D07D0042D07D0082D10D1B2
:1026100007E0FEF7DDFB03E0184602E0FEF7F8FBFB
:10262000A8B3626802EB4201814202D8B0EB023FDC
:1026300001D9012775E0DFF834815DB1022D0CD09E
:10264000042D13D0082DF4D150082905401846F167
:10265000000105E0FEF7BCFB0AE050084449F5E73D
:102660000023FDF7ADFDA0F5407156E0FEF7D0FB6D
:102670006268010E0302500818187141F0E7E16921
:102680004FF6EF7881422FD1092DD2D200E048E0F9
:10269000DFE805F006092005230505052600C8E743
:1026A000FEF796FB01E0FEF7A3FB4100D4F804001F
:1026B00001EB5001B1FBF0F080B2A0F110014145F7
:1026C000B7D84FF6F0710140C0F3420001432068D3
:1026D000C16026E027496068EAE7FEF799FBE4E776
:1026E0004FF480316068E3E7092DA2D2DFE805F0FE
:1026F00006091E052205050525009AE7FEF768FB79
:1027000001E0FEF775FB0146606801EB500100BF78
:10271000B1FBF0F080B2A0F11001414589D82168E9
:10272000C860266638466666BDE8F081606803EBDF
:102730005001EDE7FEF76CFBE5E7616800EB510047
:10274000B0FBF1F0E6E7000000800040F369FFEF26
:1027500000380140001002400044004000480040A2
:10276000004C0040005000400024F400FFFC0F002B
:10277000000024F40048E8012DE9F041984617468E
:102780000E460446069D1DE0681C1BD02DB1FDF7CA
:10279000ABFFA0EB0800A84214D92068016821F41F
:1027A000D07101602068816821F0010181602020E2
:1027B00084F8710084F87200002084F8700003200F
:1027C000BDE8F0812068C06936EA000004D000202E
:1027D000B842D9D00020F3E70120F9E7FEE702E094
:1027E00008C8121F08C1002AFAD17047704700209C
:1027F00001E001C1121F002AFBD1704710B54FF054
:102800009044002230212046FDF768FF0F49012047
:102810000860024640212046FDF760FF3220FDF7A8
:1028200065FE002240212046FDF758FF3220FDF7CB
:102830005DFE012210212046FDF750FF20460022B8
:10284000BDE810402021FDF749BF000014040048F6
:1028500010B5144CFF202060002270214FF09040F2
:10286000FDF73CFF3020206000F02EFB3820206078
:1028700000F02AFB0820206000F026FB03202060E7
:1028800000F022FB0620206000F01EFB0C202060E0
:1028900000F01AFB8020206000F016FBBDE810401D
:1028A000FFF7ACBF1404004830B50E4A4FF00004E7
:1028B000031E4FF00701D47100DA58425FF00A049A
:1028C00090FBF4F504FB150590FBF4F0491E303540
:1028D00055540028F4D1002B02DA2D20491E505403
:1028E000501830BD71000020064910B5086000F096
:1028F000EBFA0022BDE8104020214FF09040FDF798
:10290000EDBE0000140400482DED028BFDF7FAFE29
:10291000FFF7C8FAFFF778F8FFF734F9FFF7DCF8AC
:10292000D84C012211462046FDF7D8FE0122022193
:102930002046FDF7D3FED448D44C0021C068401C8B
:10294000A065D148FEF70CFFA16DA06C484364213F
:1029500090FBF1F0CE490860FFF77AFFFFF74EFFDA
:102960000022114604F1B50000F0ECF9FDF75AFD24
:10297000FDF7D2FC0420FDF727FD4FF4FA7B584603
:10298000FDF7B4FDFFF73AFF04F1DB0601279FEDE9
:10299000C18A00254FF0300AFFF730FF00221146B0
:1029A000BD4800F0CFF9BC4800220121BA3800F040
:1029B000C9F900F039FA84ED108A84ED118AA76113
:1029C000606B08BBFFF71AFFB34800221146AF380F
:1029D00000F0B8F9B04800220121BA3800F0B2F98D
:1029E00000F02EFAFFF70AFFAB4800221146283804
:1029F00000F0A8F9A848002201211E3800F0A2F931
:102A00004FF4FA60FDF772FDE168D4ED100A01EBB6
:102A1000810000EE100A6069B8EEC00A00EB800287
:102A2000520070EE200A00EE102AB8EEC00A30EE16
:102A3000800A84ED100A2269B5EEC00A11442161B2
:102A4000E169F1EE10FA0844E06164D086F807A06D
:102A500086F808A02E21BDEEC00A717286F80AA081
:102A600086F80BA010EE100AFFF71EFFC4E913054D
:102A70002946DFF828C2226C09E0624506EB01080E
:102A800002DA88F8083001E088F80730491C435C16
:102A9000002BF2D12165FFF7B1FE7C4800221146E0
:102AA000613000F04FF92563FDF7BCFCFDF734FC05
:102AB0000420FDF789FC5846FDF718FDFFF79EFE40
:102AC000754800221146A13800F03CF972480022F6
:102AD0000121943800F036F9FDF74AFCA146206B3D
:102AE00004E000BFFDF7C8FCC9F830000028F9D0A9
:102AF0006420FDF7FBFCD9F83000012834D0FFF743
:102B00007DFE654800221146113800F01BF94FF494
:102B10007A70FDF7EBFC94ED100AD4ED0F0A30EE5D
:102B2000600A84ED100A6563A563E16920690843C2
:102B30007DD0B5EEC00AF1EE10FA43D1FFF75EFE8C
:102B40005548002211467B3800F0FCF8524800221C
:102B50000121713800F0F6F84FF47A70A561FDF7A5
:102B6000C5FC00F09FF85CE0FFF748FE4A480022F1
:102B700011460B3000F0E6F85846FDF7B7FC434825
:102B800003215C3000F006F9434BC9E91450A84614
:102B90001A33434904E000BF03F8082008F1010894
:102BA00000EB08028A5C632AF6D1C9F8508000F075
:102BB00011F999ED0F0ABDEEC00AB8EEC00A89ED11
:102BC0000F0AA8E7B5EEC00AF1EE10FA10DDFFF724
:102BD00015FE314800221146613800F0B3F82E4846
:102BE00000220121533800F0ADF8A761676314E0BB
:102BF000B5EEC00AF1EE10FA13D2FFF7FFFD26483A
:102C000000221146463800F09DF823480022012199
:102C1000393800F097F8A761A7634FF47A70FDF791
:102C200065FC256384ED0F8A4FF4FA6000E01FE035
:102C3000FDF75CFCE560656194ED100A4FF47A7075
:102C400084ED110AFDF752FC6420FDF74FFCA069EA
:102C500000287FF4B5AE104925612839642081F839
:102C600008A00A3181F80BA0E561FDF73FFC93E66F
:102C7000FFF7C4FD084800221146883800F062F8CA
:102C8000CBE7000000080048F80200200800002000
:102C9000342C01400000000084010020000020418D
:102CA000CC01002070B54FF4FA56144D144C1FE0BF
:102CB00038B1002201212846FDF710FD2069401E91
:102CC0002061E06938B1002202212846FDF706FDA7
:102CD000E069401EE0613046FDF708FC0122114624
:102CE0002846FDF7FBFC012202212846FDF7F6FCF1
:102CF000E16920690143DBD170BD00000008004894
:102D0000080000200E4910B508604FF090440122E1
:102D100050212046FDF7E2FC0A20FDF7E7FB0022E8
:102D200040212046FDF7DAFC012220212046FDF754
:102D3000D5FC20460022BDE810407021FDF7CEBC36
:102D4000140400482DE9F041104C064617460D4684
:102D50002078FFF7C9FD04EB05142078FFF7C4FDC8
:102D6000E05DFFF7C1FD3046FDF770FA084D002425
:102D7000287105E0305D6871FFF7C4FF641CE4B2A0
:102D800028798442F6D3BDE8F0810000A901002033
:102D900008000020F0B50D4B044601209862D3E9ED
:102DA00008520B4E0DE0002206E0871814F802C00E
:102DB000F75D674502D1521C8A42F6DB8A4202D097
:102DC000401CA842EFDBC3E90920F0BD0800002049
:102DD000CC01002012499FED110A042081ED0F0A59
:102DE00001F5CB739FED0F1AF2EE041A08650CE0A3
:102DF00000EE902AB0EE402A401CF8EE600A70EE19
:102E0000C10AB0EE600A02EE210A1A5C2E2AEFD146
:102E100081ED0F0A401C08657047000000000000AB
:102E2000080000200000404210B5044C402120461C
:102E3000FDF74FFC0028F9D110BD00000008004844
:102E40002DE9F0411E4C002004F5AA75E060606198
:102E5000302004F5AF7628721A4FF0724FF4807864
:102E600040213846FDF735FC207080213846FDF7BB
:102E700030FC607041463846FDF72BFCA07060784E
:102E800040B9287A401C2872E068401CE060642049
:102E9000FDF72CFBA07840B9F07A401CF072606915
:102EA000401C60616420FDF721FB207818B196205A
:102EB000FDF71CFBD4E7BDE8F0416420FDF716BB2D
:102EC000080000200008004810B54FF09044002290
:102ED00070212046FDF702FC012240212046FDF72B
:102EE000FDFB0A20FDF702FB012220212046FDF711
:102EF000F5FB002220212046FDF7F0FBBDE8104045
:102F00000A20FDF7F3BA00000000000000000000F6
:102F10000102030406070809A0860100400D030012
:102F2000801A060000350C0040420F0080841E000D
:102F300000093D0000127A000024F40000366E0102
:102F40000048E801006CDC020000000001020304FC
:102F5000702F000800000020CC010000BC02000817
:102F6000A8300008CC010020E4050000EE2700088E
:102F70005173093D041741540D03262C01021328F7
:102F80001552732E209008576169742E2E2E580BFF
:102F900041542B434D47463D310D0B6C523D780B50
:102FA0005D443D312C0D4809504D533D22534D2277
:102FB0000E280A4E4D493D322C322C3002120D3F64
:102FC00047534D20496E58122E100B507265737383
:102FD000206E657874180D506C65617365205365BB
:102FE0006C65630E1C617920831B30300311380837
:102FF0007669612054657A323D4E6F2073231469DF
:103000006F6E100A5468616E6B20596F7510104511
:103010006E6A6F7920796F757220666F6F6419140C
:10302000380B20756E646572706169644E1D74683A
:1030300065206E3A741B5B6F761A496F4E206D6F78
:1030400072653918084E7574732058207648084206
:1030500068756A6979610D10114572726F722C2062
:1030600074727920616761696E280857656C636FB7
:103070006D65931E4D6F6E65795C17636569766546
:10308000647A300111200F8081828384858687884D
:103090008990919293500FC0C1C2C3C4C5C6C7C81E
:0830A000C9D0D1D2D300000019
:040000050800018965
:00000001FF
